:04000000FEEFFFF020
:102600000048656C6C6F20776F726C640000055039
:102610000610D8B40EEF13F010EF13F019EF13F00B
:1026200005500610D8A417EF13F019EF13F01EEFA2
:1026300013F0035050EC14F051EF13F020EE09F0BA
:102640000550D9260650DA22DE50DE10D8B42BEF22
:1026500013F02DEF13F048EF13F020EE09F00550C2
:10266000D9260650DA2210EE03F00550E126065076
:10267000E222DE50E65CE650800A0B6EDE50800AF5
:102680000B58D8B046EF13F048EF13F051EF13F0AA
:1026900020EE03F00550D9260650DA22DE2A000E7D
:1026A000DD2203C503F5046A1200000E146E000E4D
:1026B000136E66EF13F012C503F5046A0EC505F537
:1026C0000FC506F507EC13F0134A142A13500C2417
:1026D000106E14500D20116E10C5F6F411C5F7F4EC
:1026E0000800F5C412F51250D8A479EF13F07BEF6F
:1026F00013F05BEF13F013C50CF514C50DF51200C4
:10270000010E176E15C50CF516C50DF5000E0E6EF3
:10271000000E0F6E55EC13F00DBE91EF13F093EF1A
:1027200013F0A6EF13F0000E046E0A0E036E000EF7
:10273000056E000E066E07EC13F004BEA2EF13F058
:10274000A4EF13F0A6EF13F0000E176E120015ECB5
:1027500014F025EC14F03FEC14F0E7EC13F021EE4C
:1027600024F111EE18F10B0EDBC4E3F4E806FCE2F1
:10277000010E156E260E166E80EC13F000016A8FA6
:10278000FEEC13F0376E375034EC14F0BEEF13F05C
:10279000FEEFFFF0940EF66E280EF76E000EF86E48
:1027A00001EE24F110EE0CF00900F5C4EEF4E55052
:1027B000E150FAE101EE30F1090EEE6AE806FDE1C2
:1027C000000EF86E260EF76E0001A7EF13F0000E54
:1027D0000301EC6FF551F80B0109F56FF351F30BA1
:1027E0000409F36FF3893F0EFA6FF00EF8170F0E1E
:1027F000F817F4813E0EF96FF38F12000301F38195
:10280000F3B105EF14F007EF14F000EF14F0B10E80
:1028100037600DEF14F00FEF14F012EF14F0BF92C9
:1028200013EF14F0BF82EA51120004012897CB96EF
:102830000893C79228912893CB90CB821895C9947E
:102840000081C6800085C68412000201F78BF88FD4
:10285000F00EF717000EFB6F1A0EFA6F000EFB6FEB
:10286000F78F2C0E296F1200016EBBA23AEF14F005
:102870003CEF14F035EF14F001C5EFF212001E0E1C
:1028800000016C6F020E6E6F430E02011B6F0001A0
:102890006A9F12004144432076616C75653A2000BE
:0A28A000026E025034EC14F0120036
:020000040001F9
:04FFFC00CAEF13F045
:020000040020DA
:10000000FF0FFF0FFF0FFF0FFF0FFF0FFF0FFF0F80
:10001000FF0FFF0FFF0FFF0FFF0FFF0FFF0FFF0F70
:10002000FF0FFF0FFF0FFF0FFF0FFF0FFF0FFF0F60
:10003000FF0FFF0FFF0FFF0FFF0FFF0FFF0FFF0F50
:020000040030CA
:0A000000ECFFF7FF80FFFFFFFFFF9A
:00000001FF
