:0400000041EFFEF0DE
:020000040001F9
:10FC43005555000F010C9987980C9D879C149F882C
:10FC53009E148988881C991C9F8998898E12000F8D
:10FC6300015B855B995A51C00B0C095A6F0C0E0E40
:10FC730001EE6FFC0E0F01531753995B8F12004374
:10FC83000EF66EFC0EF76E010EF86E0900F5CF202E
:10FC9300F00900F5CF21F00900F5CF22F000016E45
:10FCA300EFFEF08298829C060E026E130E016EAE7A
:10FCB3000EE82EFED7012EFCD7022EFAD7828882B9
:10FCC3008C060E026E130E016EAE0EE82EFED701E9
:10FCD3002EFCD7022EFAD7120020C01BF021C01C25
:10FCE300F022C01DF023ECFEF053ECFEF031ECFEED
:10FCF300F01EC001F01FC002F0036A046A000E2662
:10FD0300ECFFF001C00FF002C010F003C011F004CB
:10FD1300C012F0000E136E000E146E000E156E3F2F
:10FD23000E166EA4ECFEF0D8A09AEFFEF09CEFFE48
:10FD3300F09FEFFEF0838E7AEFFEF0839E7AEFFE64
:10FD4300F000EF00F0000E0F14176E000E101418E1
:10FD53006E800E1114196E7F0E12141A6E1750183E
:10FD63001019101A10D8A4B9EFFEF0BBEFFEF0C3C0
:10FD7300EFFEF0000E0F6E000E106E000E116E00FF
:10FD83000E126E000E1314176E000E1414186E80EC
:10FD93000E1514196E7F0E16141A6E1750181019BB
:10FDA300101A10D8A4D8EFFEF0DAEFFEF0E2EFFE5F
:10FDB300F0000E136E000E146E000E156E000E167C
:10FDC3006E12AEE7EFFEF0E9EFFEF0F2EFFEF00F9A
:10FDD3006C101ED8B0102A111ED8B0112A800E1232
:10FDE3005616AEF7EFFEF0F9EFFEF002EFFFF01359
:10FDF3006C141ED8B0142A151ED8B0152A800E16FE
:10FE030056000E0F1A000E101A000E111A800E1251
:10FE13001A000E131A000E141A000E151A800E166D
:10FE23001A13500F5C1450105815501158165012D5
:10FE330058D8B01FEFFFF021EFFFF024EFFFF0D809
:10FE43009025EFFFF0D8801200096E0950D8B42D29
:10FE5300EFFFF02FEFFFF051EFFFF004BE36EFFF9F
:10FE6300F034EFFFF051EFFFF001C005F002C006E0
:10FE7300F003C007F004C008F0051E061E071E08A5
:10FE83001E052A000E06220722082205C00BF006D3
:10FE9300C00CF007C00DF008C00EF059EFFFF001E1
:10FEA300C00BF002C00CF003C00DF004C00EF00153
:10FEB30050021003100410D8A462EFFFF064EFFFA8
:10FEC300F06EEFFFF0000E016E000E026E000E03E7
:10FED3006E000E046EFFEFFFF0960E0A6E78EFFFD2
:10FEE300F00A2AD8900E320D320C320B32000E0B70
:10FEF30014056E000E0C14066E000E0D14076EFE34
:10FF03000E0E14086E0550061007100810D8A48DA5
:10FF1300EFFFF08FEFFFF072EFFFF09DEFFFF00ABE
:10FF23002A010E0B26000E0C220D220E22D8900E53
:10FF3300320D320C320B32000E0B14056E000E0C18
:10FF430014066E000E0D14076EFF0E0E14086E05D8
:10FF530050061007100810D8A4B2EFFFF0B4EFFF5B
:10FF6300F091EFFFF0BCEFFFF00A06D8900B360CD0
:10FF7300360D360E360DBEC1EFFFF0C3EFFFF0CBEB
:10FF8300EFFFF0020E0A60C9EFFFF0CBEFFFF0B610
:10FF9300EFFFF00AB0D0EFFFF0D2EFFFF0D3EFFFA7
:10FFA300F00D9ED8900A320AC005F0066A076A0867
:10FFB3006A05C008F0076A066A056A05500B12064F
:10FFC300500C1207500D1208500E120950D8B4ED00
:10FFD300EFFFF0EFEFFFF0F7EFFFF004BEF6EFFFF8
:10FFE300F0F4EFFFF0F7EFFFF00E8E0BC001F00C13
:0DFFF300C002F00DC003F00EC004F01200BB
:020000040020DA
:10000000FFFFFFFFFFFFFFFFFFFFFFFFFFFFFFFF00
:10001000FFFFFFFFFFFFFFFFFFFFFFFFFFFFFFFFF0
:10002000FFFFFFFFFFFFFFFFFFFFFFFFFFFFFFFFE0
:10003000FFFFFFFFFFFFFFFFFFFFFFFFFFFFFFFFD0
:10004000FFFFFFFFFFFFFFFFFFFFFFFFFFFFFFFFC0
:10005000FFFFFFFFFFFFFFFFFFFFFFFFFFFFFFFFB0
:10006000FFFFFFFFFFFFFFFFFFFFFFFFFFFFFFFFA0
:10007000FFFFFFFFFFFFFFFFFFFFFFFFFFFFFFFF90
:10008000FFFFFFFFFFFFFFFFFFFFFFFFFFFFFFFF80
:10009000FFFFFFFFFFFFFFFFFFFFFFFFFFFFFFFF70
:1000A000FFFFFFFFFFFFFFFFFFFFFFFFFFFFFFFF60
:1000B000FFFFFFFFFFFFFFFFFFFFFFFFFFFFFFFF50
:1000C000FFFFFFFFFFFFFFFFFFFFFFFFFFFFFFFF40
:1000D000FFFFFFFFFFFFFFFFFFFFFFFFFFFFFFFF30
:1000E000FFFFFFFFFFFFFFFFFFFFFFFFFFFFFFFF20
:1000F000FFFFFFFFFFFFFFFFFFFFFFFFFFFFFFFF10
:020000040030CA
:0C000000ECFFFFFF9FFFFFFFFFFFFFFF73
:00000001FF
